{
  "_format": "hh3-artifact-1",
  "contractName": "AgroTraceability",
  "sourceName": "contracts/AgroTraceability.sol",
  "abi": [
    {
      "inputs": [],
      "stateMutability": "nonpayable",
      "type": "constructor"
    },
    {
      "inputs": [
        {
          "internalType": "address",
          "name": "sender",
          "type": "address"
        },
        {
          "internalType": "uint256",
          "name": "tokenId",
          "type": "uint256"
        },
        {
          "internalType": "address",
          "name": "owner",
          "type": "address"
        }
      ],
      "name": "ERC721IncorrectOwner",
      "type": "error"
    },
    {
      "inputs": [
        {
          "internalType": "address",
          "name": "operator",
          "type": "address"
        },
        {
          "internalType": "uint256",
          "name": "tokenId",
          "type": "uint256"
        }
      ],
      "name": "ERC721InsufficientApproval",
      "type": "error"
    },
    {
      "inputs": [
        {
          "internalType": "address",
          "name": "approver",
          "type": "address"
        }
      ],
      "name": "ERC721InvalidApprover",
      "type": "error"
    },
    {
      "inputs": [
        {
          "internalType": "address",
          "name": "operator",
          "type": "address"
        }
      ],
      "name": "ERC721InvalidOperator",
      "type": "error"
    },
    {
      "inputs": [
        {
          "internalType": "address",
          "name": "owner",
          "type": "address"
        }
      ],
      "name": "ERC721InvalidOwner",
      "type": "error"
    },
    {
      "inputs": [
        {
          "internalType": "address",
          "name": "receiver",
          "type": "address"
        }
      ],
      "name": "ERC721InvalidReceiver",
      "type": "error"
    },
    {
      "inputs": [
        {
          "internalType": "address",
          "name": "sender",
          "type": "address"
        }
      ],
      "name": "ERC721InvalidSender",
      "type": "error"
    },
    {
      "inputs": [
        {
          "internalType": "uint256",
          "name": "tokenId",
          "type": "uint256"
        }
      ],
      "name": "ERC721NonexistentToken",
      "type": "error"
    },
    {
      "inputs": [
        {
          "internalType": "address",
          "name": "owner",
          "type": "address"
        }
      ],
      "name": "OwnableInvalidOwner",
      "type": "error"
    },
    {
      "inputs": [
        {
          "internalType": "address",
          "name": "account",
          "type": "address"
        }
      ],
      "name": "OwnableUnauthorizedAccount",
      "type": "error"
    },
    {
      "anonymous": false,
      "inputs": [
        {
          "indexed": true,
          "internalType": "address",
          "name": "owner",
          "type": "address"
        },
        {
          "indexed": true,
          "internalType": "address",
          "name": "approved",
          "type": "address"
        },
        {
          "indexed": true,
          "internalType": "uint256",
          "name": "tokenId",
          "type": "uint256"
        }
      ],
      "name": "Approval",
      "type": "event"
    },
    {
      "anonymous": false,
      "inputs": [
        {
          "indexed": true,
          "internalType": "address",
          "name": "owner",
          "type": "address"
        },
        {
          "indexed": true,
          "internalType": "address",
          "name": "operator",
          "type": "address"
        },
        {
          "indexed": false,
          "internalType": "bool",
          "name": "approved",
          "type": "bool"
        }
      ],
      "name": "ApprovalForAll",
      "type": "event"
    },
    {
      "anonymous": false,
      "inputs": [
        {
          "indexed": false,
          "internalType": "uint256",
          "name": "_fromTokenId",
          "type": "uint256"
        },
        {
          "indexed": false,
          "internalType": "uint256",
          "name": "_toTokenId",
          "type": "uint256"
        }
      ],
      "name": "BatchMetadataUpdate",
      "type": "event"
    },
    {
      "anonymous": false,
      "inputs": [
        {
          "indexed": true,
          "internalType": "uint256",
          "name": "tokenId",
          "type": "uint256"
        },
        {
          "indexed": true,
          "internalType": "address",
          "name": "buyer",
          "type": "address"
        },
        {
          "indexed": false,
          "internalType": "uint8",
          "name": "rating",
          "type": "uint8"
        }
      ],
      "name": "BuyerRated",
      "type": "event"
    },
    {
      "anonymous": false,
      "inputs": [
        {
          "indexed": true,
          "internalType": "uint256",
          "name": "tokenId",
          "type": "uint256"
        },
        {
          "indexed": true,
          "internalType": "address",
          "name": "buyer",
          "type": "address"
        },
        {
          "indexed": false,
          "internalType": "uint256",
          "name": "amount",
          "type": "uint256"
        }
      ],
      "name": "EscrowFunded",
      "type": "event"
    },
    {
      "anonymous": false,
      "inputs": [
        {
          "indexed": true,
          "internalType": "uint256",
          "name": "tokenId",
          "type": "uint256"
        },
        {
          "indexed": true,
          "internalType": "address",
          "name": "seller",
          "type": "address"
        },
        {
          "indexed": false,
          "internalType": "uint256",
          "name": "amount",
          "type": "uint256"
        }
      ],
      "name": "FundsReleased",
      "type": "event"
    },
    {
      "anonymous": false,
      "inputs": [
        {
          "indexed": false,
          "internalType": "uint256",
          "name": "_tokenId",
          "type": "uint256"
        }
      ],
      "name": "MetadataUpdate",
      "type": "event"
    },
    {
      "anonymous": false,
      "inputs": [
        {
          "indexed": true,
          "internalType": "address",
          "name": "previousOwner",
          "type": "address"
        },
        {
          "indexed": true,
          "internalType": "address",
          "name": "newOwner",
          "type": "address"
        }
      ],
      "name": "OwnershipTransferred",
      "type": "event"
    },
    {
      "anonymous": false,
      "inputs": [
        {
          "indexed": true,
          "internalType": "uint256",
          "name": "tokenId",
          "type": "uint256"
        }
      ],
      "name": "ProduceDelivered",
      "type": "event"
    },
    {
      "anonymous": false,
      "inputs": [
        {
          "indexed": true,
          "internalType": "uint256",
          "name": "tokenId",
          "type": "uint256"
        },
        {
          "indexed": true,
          "internalType": "address",
          "name": "farmer",
          "type": "address"
        },
        {
          "indexed": false,
          "internalType": "string",
          "name": "ipfsUri",
          "type": "string"
        }
      ],
      "name": "ProduceMinted",
      "type": "event"
    },
    {
      "anonymous": false,
      "inputs": [
        {
          "indexed": true,
          "internalType": "address",
          "name": "from",
          "type": "address"
        },
        {
          "indexed": true,
          "internalType": "address",
          "name": "to",
          "type": "address"
        },
        {
          "indexed": true,
          "internalType": "uint256",
          "name": "tokenId",
          "type": "uint256"
        }
      ],
      "name": "Transfer",
      "type": "event"
    },
    {
      "inputs": [
        {
          "internalType": "address",
          "name": "to",
          "type": "address"
        },
        {
          "internalType": "uint256",
          "name": "tokenId",
          "type": "uint256"
        }
      ],
      "name": "approve",
      "outputs": [],
      "stateMutability": "nonpayable",
      "type": "function"
    },
    {
      "inputs": [
        {
          "internalType": "address",
          "name": "owner",
          "type": "address"
        }
      ],
      "name": "balanceOf",
      "outputs": [
        {
          "internalType": "uint256",
          "name": "",
          "type": "uint256"
        }
      ],
      "stateMutability": "view",
      "type": "function"
    },
    {
      "inputs": [
        {
          "internalType": "uint256",
          "name": "tokenId",
          "type": "uint256"
        },
        {
          "internalType": "uint8",
          "name": "ratingForSeller",
          "type": "uint8"
        }
      ],
      "name": "confirmDeliveryAndReleaseFunds",
      "outputs": [],
      "stateMutability": "nonpayable",
      "type": "function"
    },
    {
      "inputs": [
        {
          "internalType": "uint256",
          "name": "",
          "type": "uint256"
        }
      ],
      "name": "escrows",
      "outputs": [
        {
          "internalType": "address",
          "name": "buyer",
          "type": "address"
        },
        {
          "internalType": "address",
          "name": "seller",
          "type": "address"
        },
        {
          "internalType": "uint256",
          "name": "amount",
          "type": "uint256"
        },
        {
          "internalType": "bool",
          "name": "isFunded",
          "type": "bool"
        },
        {
          "internalType": "bool",
          "name": "isDelivered",
          "type": "bool"
        },
        {
          "internalType": "bool",
          "name": "sellerRatedBuyer",
          "type": "bool"
        }
      ],
      "stateMutability": "view",
      "type": "function"
    },
    {
      "inputs": [
        {
          "internalType": "uint256",
          "name": "tokenId",
          "type": "uint256"
        }
      ],
      "name": "fundEscrow",
      "outputs": [],
      "stateMutability": "payable",
      "type": "function"
    },
    {
      "inputs": [
        {
          "internalType": "uint256",
          "name": "tokenId",
          "type": "uint256"
        }
      ],
      "name": "getApproved",
      "outputs": [
        {
          "internalType": "address",
          "name": "",
          "type": "address"
        }
      ],
      "stateMutability": "view",
      "type": "function"
    },
    {
      "inputs": [
        {
          "internalType": "address",
          "name": "user",
          "type": "address"
        }
      ],
      "name": "getAverageRating",
      "outputs": [
        {
          "internalType": "uint256",
          "name": "",
          "type": "uint256"
        },
        {
          "internalType": "uint256",
          "name": "",
          "type": "uint256"
        }
      ],
      "stateMutability": "view",
      "type": "function"
    },
    {
      "inputs": [
        {
          "internalType": "address",
          "name": "owner",
          "type": "address"
        },
        {
          "internalType": "address",
          "name": "operator",
          "type": "address"
        }
      ],
      "name": "isApprovedForAll",
      "outputs": [
        {
          "internalType": "bool",
          "name": "",
          "type": "bool"
        }
      ],
      "stateMutability": "view",
      "type": "function"
    },
    {
      "inputs": [
        {
          "internalType": "string",
          "name": "uri",
          "type": "string"
        }
      ],
      "name": "mintProduce",
      "outputs": [
        {
          "internalType": "uint256",
          "name": "",
          "type": "uint256"
        }
      ],
      "stateMutability": "nonpayable",
      "type": "function"
    },
    {
      "inputs": [],
      "name": "name",
      "outputs": [
        {
          "internalType": "string",
          "name": "",
          "type": "string"
        }
      ],
      "stateMutability": "view",
      "type": "function"
    },
    {
      "inputs": [],
      "name": "owner",
      "outputs": [
        {
          "internalType": "address",
          "name": "",
          "type": "address"
        }
      ],
      "stateMutability": "view",
      "type": "function"
    },
    {
      "inputs": [
        {
          "internalType": "uint256",
          "name": "tokenId",
          "type": "uint256"
        }
      ],
      "name": "ownerOf",
      "outputs": [
        {
          "internalType": "address",
          "name": "",
          "type": "address"
        }
      ],
      "stateMutability": "view",
      "type": "function"
    },
    {
      "inputs": [
        {
          "internalType": "uint256",
          "name": "tokenId",
          "type": "uint256"
        },
        {
          "internalType": "uint8",
          "name": "ratingForBuyer",
          "type": "uint8"
        }
      ],
      "name": "rateBuyer",
      "outputs": [],
      "stateMutability": "nonpayable",
      "type": "function"
    },
    {
      "inputs": [
        {
          "internalType": "address",
          "name": "",
          "type": "address"
        }
      ],
      "name": "ratings",
      "outputs": [
        {
          "internalType": "uint256",
          "name": "totalScore",
          "type": "uint256"
        },
        {
          "internalType": "uint256",
          "name": "reviewCount",
          "type": "uint256"
        }
      ],
      "stateMutability": "view",
      "type": "function"
    },
    {
      "inputs": [],
      "name": "renounceOwnership",
      "outputs": [],
      "stateMutability": "nonpayable",
      "type": "function"
    },
    {
      "inputs": [
        {
          "internalType": "address",
          "name": "from",
          "type": "address"
        },
        {
          "internalType": "address",
          "name": "to",
          "type": "address"
        },
        {
          "internalType": "uint256",
          "name": "tokenId",
          "type": "uint256"
        }
      ],
      "name": "safeTransferFrom",
      "outputs": [],
      "stateMutability": "nonpayable",
      "type": "function"
    },
    {
      "inputs": [
        {
          "internalType": "address",
          "name": "from",
          "type": "address"
        },
        {
          "internalType": "address",
          "name": "to",
          "type": "address"
        },
        {
          "internalType": "uint256",
          "name": "tokenId",
          "type": "uint256"
        },
        {
          "internalType": "bytes",
          "name": "data",
          "type": "bytes"
        }
      ],
      "name": "safeTransferFrom",
      "outputs": [],
      "stateMutability": "nonpayable",
      "type": "function"
    },
    {
      "inputs": [
        {
          "internalType": "address",
          "name": "operator",
          "type": "address"
        },
        {
          "internalType": "bool",
          "name": "approved",
          "type": "bool"
        }
      ],
      "name": "setApprovalForAll",
      "outputs": [],
      "stateMutability": "nonpayable",
      "type": "function"
    },
    {
      "inputs": [
        {
          "internalType": "bytes4",
          "name": "interfaceId",
          "type": "bytes4"
        }
      ],
      "name": "supportsInterface",
      "outputs": [
        {
          "internalType": "bool",
          "name": "",
          "type": "bool"
        }
      ],
      "stateMutability": "view",
      "type": "function"
    },
    {
      "inputs": [],
      "name": "symbol",
      "outputs": [
        {
          "internalType": "string",
          "name": "",
          "type": "string"
        }
      ],
      "stateMutability": "view",
      "type": "function"
    },
    {
      "inputs": [
        {
          "internalType": "uint256",
          "name": "tokenId",
          "type": "uint256"
        }
      ],
      "name": "tokenURI",
      "outputs": [
        {
          "internalType": "string",
          "name": "",
          "type": "string"
        }
      ],
      "stateMutability": "view",
      "type": "function"
    },
    {
      "inputs": [
        {
          "internalType": "address",
          "name": "from",
          "type": "address"
        },
        {
          "internalType": "address",
          "name": "to",
          "type": "address"
        },
        {
          "internalType": "uint256",
          "name": "tokenId",
          "type": "uint256"
        }
      ],
      "name": "transferFrom",
      "outputs": [],
      "stateMutability": "nonpayable",
      "type": "function"
    },
    {
      "inputs": [
        {
          "internalType": "address",
          "name": "newOwner",
          "type": "address"
        }
      ],
      "name": "transferOwnership",
      "outputs": [],
      "stateMutability": "nonpayable",
      "type": "function"
    }
  ],
  "bytecode": "0x608060405234801562000010575f80fd5b50336040518060400160405280600b81526020017f4167726f50726f647563650000000000000000000000000000000000000000008152506040518060400160405280600481526020017f4147525000000000000000000000000000000000000000000000000000000000815250815f90816200008e919062000455565b508060019081620000a0919062000455565b5050505f73ffffffffffffffffffffffffffffffffffffffff168173ffffffffffffffffffffffffffffffffffffffff160362000116575f6040517f1e4fbdf70000000000000000000000000000000000000000000000000000000081526004016200010d91906200057c565b60405180910390fd5b62000127816200012e60201b60201c565b5062000597565b5f60075f9054906101000a900473ffffffffffffffffffffffffffffffffffffffff1690508160075f6101000a81548173ffffffffffffffffffffffffffffffffffffffff021916908373ffffffffffffffffffffffffffffffffffffffff1602179055508173ffffffffffffffffffffffffffffffffffffffff168173ffffffffffffffffffffffffffffffffffffffff167f8be0079c531659141344cd1fd0a4f28419497f9722a3daafe3b4186f6b6457e060405160405180910390a35050565b5f81519050919050565b7f4e487b71000000000000000000000000000000000000000000000000000000005f52604160045260245ffd5b7f4e487b71000000000000000000000000000000000000000000000000000000005f52602260045260245ffd5b5f60028204905060018216806200026d57607f821691505b60208210810362000283576200028262000228565b5b50919050565b5f819050815f5260205f209050919050565b5f6020601f8301049050919050565b5f82821b905092915050565b5f60088302620002e77fffffffffffffffffffffffffffffffffffffffffffffffffffffffffffffffff82620002aa565b620002f38683620002aa565b95508019841693508086168417925050509392505050565b5f819050919050565b5f819050919050565b5f6200033d6200033762000331846200030b565b62000314565b6200030b565b9050919050565b5f819050919050565b62000358836200031d565b62000370620003678262000344565b848454620002b6565b825550505050565b5f90565b6200038662000378565b620003938184846200034d565b505050565b5b81811015620003ba57620003ae5f826200037c565b60018101905062000399565b5050565b601f8211156200040957620003d38162000289565b620003de846200029b565b81016020851015620003ee578190505b62000406620003fd856200029b565b83018262000398565b50505b505050565b5f82821c905092915050565b5f6200042b5f19846008026200040e565b1980831691505092915050565b5f6200044583836200041a565b9150826002028217905092915050565b6200046082620001f1565b67ffffffffffffffff8111156200047c576200047b620001fb565b5b62000488825462000255565b62000495828285620003be565b5f60209050601f831160018114620004cb575f8415620004b6578287015190505b620004c2858262000438565b86555062000531565b601f198416620004db8662000289565b5f5b828110156200050457848901518255600182019150602085019450602081019050620004dd565b8683101562000524578489015162000520601f8916826200041a565b8355505b6001600288020188555050505b505050505050565b5f73ffffffffffffffffffffffffffffffffffffffff82169050919050565b5f620005648262000539565b9050919050565b620005768162000558565b82525050565b5f602082019050620005915f8301846200056b565b92915050565b6139bf80620005a55f395ff3fe60806040526004361061013f575f3560e01c8063715018a6116100b5578063b88d4fde1161006e578063b88d4fde14610471578063c87b56dd14610499578063c8b67522146104d5578063c9c31af514610512578063e985e9c51461052e578063f2fde38b1461056a5761013f565b8063715018a61461037a5780638af185f3146103905780638da5cb5b146103b857806395d89b41146103e25780639e01dfbb1461040c578063a22cb465146104495761013f565b806323b872dd1161010757806323b872dd1461024e578063390a2ad41461027657806342842e0e146102b25780635c04a592146102da5780636352211e1461030257806370a082311461033e5761013f565b8063012f52ee1461014357806301ffc9a71461018457806306fdde03146101c0578063081812fc146101ea578063095ea7b314610226575b5f80fd5b34801561014e575f80fd5b5061016960048036038101906101649190612932565b610592565b60405161017b969594939291906129c5565b60405180910390f35b34801561018f575f80fd5b506101aa60048036038101906101a59190612a79565b61062e565b6040516101b79190612aa4565b60405180910390f35b3480156101cb575f80fd5b506101d461068e565b6040516101e19190612b47565b60405180910390f35b3480156101f5575f80fd5b50610210600480360381019061020b9190612932565b61071d565b60405161021d9190612b67565b60405180910390f35b348015610231575f80fd5b5061024c60048036038101906102479190612baa565b610738565b005b348015610259575f80fd5b50610274600480360381019061026f9190612be8565b61074e565b005b348015610281575f80fd5b5061029c60048036038101906102979190612d64565b61084d565b6040516102a99190612dab565b60405180910390f35b3480156102bd575f80fd5b506102d860048036038101906102d39190612be8565b6108d3565b005b3480156102e5575f80fd5b5061030060048036038101906102fb9190612dfa565b6108f2565b005b34801561030d575f80fd5b5061032860048036038101906103239190612932565b610c13565b6040516103359190612b67565b60405180910390f35b348015610349575f80fd5b50610364600480360381019061035f9190612e38565b610c24565b6040516103719190612dab565b60405180910390f35b348015610385575f80fd5b5061038e610cda565b005b34801561039b575f80fd5b506103b660048036038101906103b19190612dfa565b610ced565b005b3480156103c3575f80fd5b506103cc6110a9565b6040516103d99190612b67565b60405180910390f35b3480156103ed575f80fd5b506103f66110d1565b6040516104039190612b47565b60405180910390f35b348015610417575f80fd5b50610432600480360381019061042d9190612e38565b611161565b604051610440929190612e63565b60405180910390f35b348015610454575f80fd5b5061046f600480360381019061046a9190612eb4565b611181565b005b34801561047c575f80fd5b5061049760048036038101906104929190612f90565b611197565b005b3480156104a4575f80fd5b506104bf60048036038101906104ba9190612932565b6111bc565b6040516104cc9190612b47565b60405180910390f35b3480156104e0575f80fd5b506104fb60048036038101906104f69190612e38565b6112c7565b604051610509929190612e63565b60405180910390f35b61052c60048036038101906105279190612932565b6113f1565b005b348015610539575f80fd5b50610554600480360381019061054f9190613010565b611689565b6040516105619190612aa4565b60405180910390f35b348015610575575f80fd5b50610590600480360381019061058b9190612e38565b611717565b005b6009602052805f5260405f205f91509050805f015f9054906101000a900473ffffffffffffffffffffffffffffffffffffffff1690806001015f9054906101000a900473ffffffffffffffffffffffffffffffffffffffff1690806002015490806003015f9054906101000a900460ff16908060030160019054906101000a900460ff16908060030160029054906101000a900460ff16905086565b5f634906490660e01b7bffffffffffffffffffffffffffffffffffffffffffffffffffffffff1916827bffffffffffffffffffffffffffffffffffffffffffffffffffffffff1916148061068757506106868261179b565b5b9050919050565b60605f805461069c9061307b565b80601f01602080910402602001604051908101604052809291908181526020018280546106c89061307b565b80156107135780601f106106ea57610100808354040283529160200191610713565b820191905f5260205f20905b8154815290600101906020018083116106f657829003601f168201915b5050505050905090565b5f6107278261187c565b5061073182611902565b9050919050565b61074a828261074561193b565b611942565b5050565b5f73ffffffffffffffffffffffffffffffffffffffff168273ffffffffffffffffffffffffffffffffffffffff16036107be575f6040517f64a0ae920000000000000000000000000000000000000000000000000000000081526004016107b59190612b67565b60405180910390fd5b5f6107d183836107cc61193b565b611954565b90508373ffffffffffffffffffffffffffffffffffffffff168173ffffffffffffffffffffffffffffffffffffffff1614610847578382826040517f64283d7b00000000000000000000000000000000000000000000000000000000815260040161083e939291906130ab565b60405180910390fd5b50505050565b5f8060085f8154809291906108619061310d565b9190505590506108713382611b5f565b61087b8184611c52565b3373ffffffffffffffffffffffffffffffffffffffff16817f01bd111578c42982a705092a9a1805188daf3728b3f9622ca2036585181888d7856040516108c29190612b47565b60405180910390a380915050919050565b6108ed83838360405180602001604052805f815250611197565b505050565b5f60095f8481526020019081526020015f209050806001015f9054906101000a900473ffffffffffffffffffffffffffffffffffffffff1673ffffffffffffffffffffffffffffffffffffffff163373ffffffffffffffffffffffffffffffffffffffff1614610997576040517f08c379a000000000000000000000000000000000000000000000000000000000815260040161098e906131c4565b60405180910390fd5b8060030160019054906101000a900460ff166109e8576040517f08c379a00000000000000000000000000000000000000000000000000000000081526004016109df90613252565b60405180910390fd5b8060030160029054906101000a900460ff1615610a3a576040517f08c379a0000000000000000000000000000000000000000000000000000000008152600401610a31906132e0565b60405180910390fd5b5f8260ff16118015610a50575060058260ff1611155b610a8f576040517f08c379a0000000000000000000000000000000000000000000000000000000008152600401610a8690613348565b60405180910390fd5b60018160030160026101000a81548160ff0219169083151502179055508160ff16600a5f835f015f9054906101000a900473ffffffffffffffffffffffffffffffffffffffff1673ffffffffffffffffffffffffffffffffffffffff1673ffffffffffffffffffffffffffffffffffffffff1681526020019081526020015f205f015f828254610b1f9190613366565b92505081905550600a5f825f015f9054906101000a900473ffffffffffffffffffffffffffffffffffffffff1673ffffffffffffffffffffffffffffffffffffffff1673ffffffffffffffffffffffffffffffffffffffff1681526020019081526020015f206001015f815480929190610b989061310d565b9190505550805f015f9054906101000a900473ffffffffffffffffffffffffffffffffffffffff1673ffffffffffffffffffffffffffffffffffffffff16837fd5f8db556ab9fc6ce959f04bd531a3b27d8254a24e05ab2005b0dc5beb561eff84604051610c0691906133a8565b60405180910390a3505050565b5f610c1d8261187c565b9050919050565b5f8073ffffffffffffffffffffffffffffffffffffffff168273ffffffffffffffffffffffffffffffffffffffff1603610c95575f6040517f89c62b64000000000000000000000000000000000000000000000000000000008152600401610c8c9190612b67565b60405180910390fd5b60035f8373ffffffffffffffffffffffffffffffffffffffff1673ffffffffffffffffffffffffffffffffffffffff1681526020019081526020015f20549050919050565b610ce2611cac565b610ceb5f611d33565b565b5f60095f8481526020019081526020015f209050805f015f9054906101000a900473ffffffffffffffffffffffffffffffffffffffff1673ffffffffffffffffffffffffffffffffffffffff163373ffffffffffffffffffffffffffffffffffffffff1614610d91576040517f08c379a0000000000000000000000000000000000000000000000000000000008152600401610d889061340b565b60405180910390fd5b806003015f9054906101000a900460ff16610de1576040517f08c379a0000000000000000000000000000000000000000000000000000000008152600401610dd890613473565b60405180910390fd5b5f8260ff16118015610df7575060058260ff1611155b610e36576040517f08c379a0000000000000000000000000000000000000000000000000000000008152600401610e2d90613348565b60405180910390fd5b60018160030160016101000a81548160ff021916908315150217905550806001015f9054906101000a900473ffffffffffffffffffffffffffffffffffffffff1673ffffffffffffffffffffffffffffffffffffffff166108fc826002015490811502906040515f60405180830381858888f19350505050158015610ebd573d5f803e3d5ffd5b50610f0e816001015f9054906101000a900473ffffffffffffffffffffffffffffffffffffffff16825f015f9054906101000a900473ffffffffffffffffffffffffffffffffffffffff1685611df6565b8160ff16600a5f836001015f9054906101000a900473ffffffffffffffffffffffffffffffffffffffff1673ffffffffffffffffffffffffffffffffffffffff1673ffffffffffffffffffffffffffffffffffffffff1681526020019081526020015f205f015f828254610f829190613366565b92505081905550600a5f826001015f9054906101000a900473ffffffffffffffffffffffffffffffffffffffff1673ffffffffffffffffffffffffffffffffffffffff1673ffffffffffffffffffffffffffffffffffffffff1681526020019081526020015f206001015f815480929190610ffc9061310d565b9190505550827fb8115a03e08ebab8a7b15d607c261054c8aa6be2f16d0299a6c7819cd97df9c760405160405180910390a2806001015f9054906101000a900473ffffffffffffffffffffffffffffffffffffffff1673ffffffffffffffffffffffffffffffffffffffff16837f6e3c6096795c8298a218b2cfb8bde42726ff7c9a3d27b4d3ba41ab7f74feb5fb836002015460405161109c9190612dab565b60405180910390a3505050565b5f60075f9054906101000a900473ffffffffffffffffffffffffffffffffffffffff16905090565b6060600180546110e09061307b565b80601f016020809104026020016040519081016040528092919081815260200182805461110c9061307b565b80156111575780601f1061112e57610100808354040283529160200191611157565b820191905f5260205f20905b81548152906001019060200180831161113a57829003601f168201915b5050505050905090565b600a602052805f5260405f205f91509050805f0154908060010154905082565b61119361118c61193b565b8383611f5e565b5050565b6111a284848461074e565b6111b66111ad61193b565b858585856120c7565b50505050565b60606111c78261187c565b505f60065f8481526020019081526020015f2080546111e59061307b565b80601f01602080910402602001604051908101604052809291908181526020018280546112119061307b565b801561125c5780601f106112335761010080835404028352916020019161125c565b820191905f5260205f20905b81548152906001019060200180831161123f57829003601f168201915b505050505090505f61126c612273565b90505f8151036112805781925050506112c2565b5f825111156112b457808260405160200161129c9291906134cb565b604051602081830303815290604052925050506112c2565b6112bd84612289565b925050505b919050565b5f805f600a5f8573ffffffffffffffffffffffffffffffffffffffff1673ffffffffffffffffffffffffffffffffffffffff1681526020019081526020015f20600101540361131b575f80915091506113ec565b600a5f8473ffffffffffffffffffffffffffffffffffffffff1673ffffffffffffffffffffffffffffffffffffffff1681526020019081526020015f2060010154600a5f8573ffffffffffffffffffffffffffffffffffffffff1673ffffffffffffffffffffffffffffffffffffffff1681526020019081526020015f205f01546113a6919061351b565b600a5f8573ffffffffffffffffffffffffffffffffffffffff1673ffffffffffffffffffffffffffffffffffffffff1681526020019081526020015f2060010154915091505b915091565b3373ffffffffffffffffffffffffffffffffffffffff1661141182610c13565b73ffffffffffffffffffffffffffffffffffffffff1603611467576040517f08c379a000000000000000000000000000000000000000000000000000000000815260040161145e90613595565b60405180910390fd5b60095f8281526020019081526020015f206003015f9054906101000a900460ff16156114c8576040517f08c379a00000000000000000000000000000000000000000000000000000000081526004016114bf906135fd565b60405180910390fd5b6040518060c001604052803373ffffffffffffffffffffffffffffffffffffffff1681526020016114f883610c13565b73ffffffffffffffffffffffffffffffffffffffff1681526020013481526020016001151581526020015f151581526020015f151581525060095f8381526020019081526020015f205f820151815f015f6101000a81548173ffffffffffffffffffffffffffffffffffffffff021916908373ffffffffffffffffffffffffffffffffffffffff1602179055506020820151816001015f6101000a81548173ffffffffffffffffffffffffffffffffffffffff021916908373ffffffffffffffffffffffffffffffffffffffff160217905550604082015181600201556060820151816003015f6101000a81548160ff02191690831515021790555060808201518160030160016101000a81548160ff02191690831515021790555060a08201518160030160026101000a81548160ff0219169083151502179055509050503373ffffffffffffffffffffffffffffffffffffffff16817f4a2cd88ec7a748d5b20b3512d7249c67745777b219009075c745923684e9653d3460405161167e9190612dab565b60405180910390a350565b5f60055f8473ffffffffffffffffffffffffffffffffffffffff1673ffffffffffffffffffffffffffffffffffffffff1681526020019081526020015f205f8373ffffffffffffffffffffffffffffffffffffffff1673ffffffffffffffffffffffffffffffffffffffff1681526020019081526020015f205f9054906101000a900460ff16905092915050565b61171f611cac565b5f73ffffffffffffffffffffffffffffffffffffffff168173ffffffffffffffffffffffffffffffffffffffff160361178f575f6040517f1e4fbdf70000000000000000000000000000000000000000000000000000000081526004016117869190612b67565b60405180910390fd5b61179881611d33565b50565b5f7f80ac58cd000000000000000000000000000000000000000000000000000000007bffffffffffffffffffffffffffffffffffffffffffffffffffffffff1916827bffffffffffffffffffffffffffffffffffffffffffffffffffffffff1916148061186557507f5b5e139f000000000000000000000000000000000000000000000000000000007bffffffffffffffffffffffffffffffffffffffffffffffffffffffff1916827bffffffffffffffffffffffffffffffffffffffffffffffffffffffff1916145b806118755750611874826122ef565b5b9050919050565b5f8061188783612358565b90505f73ffffffffffffffffffffffffffffffffffffffff168173ffffffffffffffffffffffffffffffffffffffff16036118f957826040517f7e2732890000000000000000000000000000000000000000000000000000000081526004016118f09190612dab565b60405180910390fd5b80915050919050565b5f60045f8381526020019081526020015f205f9054906101000a900473ffffffffffffffffffffffffffffffffffffffff169050919050565b5f33905090565b61194f8383836001612391565b505050565b5f8061195f84612358565b90505f73ffffffffffffffffffffffffffffffffffffffff168373ffffffffffffffffffffffffffffffffffffffff16146119a05761199f818486612550565b5b5f73ffffffffffffffffffffffffffffffffffffffff168173ffffffffffffffffffffffffffffffffffffffff1614611a2b576119df5f855f80612391565b600160035f8373ffffffffffffffffffffffffffffffffffffffff1673ffffffffffffffffffffffffffffffffffffffff1681526020019081526020015f205f82825403925050819055505b5f73ffffffffffffffffffffffffffffffffffffffff168573ffffffffffffffffffffffffffffffffffffffff1614611aaa57600160035f8773ffffffffffffffffffffffffffffffffffffffff1673ffffffffffffffffffffffffffffffffffffffff1681526020019081526020015f205f82825401925050819055505b8460025f8681526020019081526020015f205f6101000a81548173ffffffffffffffffffffffffffffffffffffffff021916908373ffffffffffffffffffffffffffffffffffffffff160217905550838573ffffffffffffffffffffffffffffffffffffffff168273ffffffffffffffffffffffffffffffffffffffff167fddf252ad1be2c89b69c2b068fc378daa952ba7f163c4a11628f55a4df523b3ef60405160405180910390a4809150509392505050565b5f73ffffffffffffffffffffffffffffffffffffffff168273ffffffffffffffffffffffffffffffffffffffff1603611bcf575f6040517f64a0ae92000000000000000000000000000000000000000000000000000000008152600401611bc69190612b67565b60405180910390fd5b5f611bdb83835f611954565b90505f73ffffffffffffffffffffffffffffffffffffffff168173ffffffffffffffffffffffffffffffffffffffff1614611c4d575f6040517f73c6ac6e000000000000000000000000000000000000000000000000000000008152600401611c449190612b67565b60405180910390fd5b505050565b8060065f8481526020019081526020015f209081611c7091906137b8565b507ff8e1a15aba9398e019f0b49df1a4fde98ee17ae345cb5f6b5e2c27f5033e8ce782604051611ca09190612dab565b60405180910390a15050565b611cb461193b565b73ffffffffffffffffffffffffffffffffffffffff16611cd26110a9565b73ffffffffffffffffffffffffffffffffffffffff1614611d3157611cf561193b565b6040517f118cdaa7000000000000000000000000000000000000000000000000000000008152600401611d289190612b67565b60405180910390fd5b565b5f60075f9054906101000a900473ffffffffffffffffffffffffffffffffffffffff1690508160075f6101000a81548173ffffffffffffffffffffffffffffffffffffffff021916908373ffffffffffffffffffffffffffffffffffffffff1602179055508173ffffffffffffffffffffffffffffffffffffffff168173ffffffffffffffffffffffffffffffffffffffff167f8be0079c531659141344cd1fd0a4f28419497f9722a3daafe3b4186f6b6457e060405160405180910390a35050565b5f73ffffffffffffffffffffffffffffffffffffffff168273ffffffffffffffffffffffffffffffffffffffff1603611e66575f6040517f64a0ae92000000000000000000000000000000000000000000000000000000008152600401611e5d9190612b67565b60405180910390fd5b5f611e7283835f611954565b90505f73ffffffffffffffffffffffffffffffffffffffff168173ffffffffffffffffffffffffffffffffffffffff1603611ee457816040517f7e273289000000000000000000000000000000000000000000000000000000008152600401611edb9190612dab565b60405180910390fd5b8373ffffffffffffffffffffffffffffffffffffffff168173ffffffffffffffffffffffffffffffffffffffff1614611f58578382826040517f64283d7b000000000000000000000000000000000000000000000000000000008152600401611f4f939291906130ab565b60405180910390fd5b50505050565b5f73ffffffffffffffffffffffffffffffffffffffff168273ffffffffffffffffffffffffffffffffffffffff1603611fce57816040517f5b08ba18000000000000000000000000000000000000000000000000000000008152600401611fc59190612b67565b60405180910390fd5b8060055f8573ffffffffffffffffffffffffffffffffffffffff1673ffffffffffffffffffffffffffffffffffffffff1681526020019081526020015f205f8473ffffffffffffffffffffffffffffffffffffffff1673ffffffffffffffffffffffffffffffffffffffff1681526020019081526020015f205f6101000a81548160ff0219169083151502179055508173ffffffffffffffffffffffffffffffffffffffff168373ffffffffffffffffffffffffffffffffffffffff167f17307eab39ab6107e8899845ad3d59bd9653f200f220920489ca2b5937696c31836040516120ba9190612aa4565b60405180910390a3505050565b5f8373ffffffffffffffffffffffffffffffffffffffff163b111561226c578273ffffffffffffffffffffffffffffffffffffffff1663150b7a02868685856040518563ffffffff1660e01b815260040161212594939291906138d9565b6020604051808303815f875af192505050801561216057506040513d601f19601f8201168201806040525081019061215d9190613937565b60015b6121e1573d805f811461218e576040519150601f19603f3d011682016040523d82523d5f602084013e612193565b606091505b505f8151036121d957836040517f64a0ae920000000000000000000000000000000000000000000000000000000081526004016121d09190612b67565b60405180910390fd5b805160208201fd5b63150b7a0260e01b7bffffffffffffffffffffffffffffffffffffffffffffffffffffffff1916817bffffffffffffffffffffffffffffffffffffffffffffffffffffffff19161461226a57836040517f64a0ae920000000000000000000000000000000000000000000000000000000081526004016122619190612b67565b60405180910390fd5b505b5050505050565b606060405180602001604052805f815250905090565b60606122948261187c565b505f61229e612273565b90505f8151116122bc5760405180602001604052805f8152506122e7565b806122c684612613565b6040516020016122d79291906134cb565b6040516020818303038152906040525b915050919050565b5f7f01ffc9a7000000000000000000000000000000000000000000000000000000007bffffffffffffffffffffffffffffffffffffffffffffffffffffffff1916827bffffffffffffffffffffffffffffffffffffffffffffffffffffffff1916149050919050565b5f60025f8381526020019081526020015f205f9054906101000a900473ffffffffffffffffffffffffffffffffffffffff169050919050565b80806123c957505f73ffffffffffffffffffffffffffffffffffffffff168273ffffffffffffffffffffffffffffffffffffffff1614155b156124fb575f6123d88461187c565b90505f73ffffffffffffffffffffffffffffffffffffffff168373ffffffffffffffffffffffffffffffffffffffff161415801561244257508273ffffffffffffffffffffffffffffffffffffffff168173ffffffffffffffffffffffffffffffffffffffff1614155b801561245557506124538184611689565b155b1561249757826040517fa9fbf51f00000000000000000000000000000000000000000000000000000000815260040161248e9190612b67565b60405180910390fd5b81156124f957838573ffffffffffffffffffffffffffffffffffffffff168273ffffffffffffffffffffffffffffffffffffffff167f8c5be1e5ebec7d5bd14f71427d1e84f3dd0314c0f7b2291e5b200ac8c7c3b92560405160405180910390a45b505b8360045f8581526020019081526020015f205f6101000a81548173ffffffffffffffffffffffffffffffffffffffff021916908373ffffffffffffffffffffffffffffffffffffffff16021790555050505050565b61255b8383836126dd565b61260e575f73ffffffffffffffffffffffffffffffffffffffff168373ffffffffffffffffffffffffffffffffffffffff16036125cf57806040517f7e2732890000000000000000000000000000000000000000000000000000000081526004016125c69190612dab565b60405180910390fd5b81816040517f177e802f000000000000000000000000000000000000000000000000000000008152600401612605929190613962565b60405180910390fd5b505050565b60605f60016126218461279d565b0190505f8167ffffffffffffffff81111561263f5761263e612c40565b5b6040519080825280601f01601f1916602001820160405280156126715781602001600182028036833780820191505090505b5090505f82602083010190505b6001156126d2578080600190039150507f3031323334353637383961626364656600000000000000000000000000000000600a86061a8153600a85816126c7576126c66134ee565b5b0494505f850361267e575b819350505050919050565b5f8073ffffffffffffffffffffffffffffffffffffffff168373ffffffffffffffffffffffffffffffffffffffff161415801561279457508273ffffffffffffffffffffffffffffffffffffffff168473ffffffffffffffffffffffffffffffffffffffff16148061275557506127548484611689565b5b8061279357508273ffffffffffffffffffffffffffffffffffffffff1661277b83611902565b73ffffffffffffffffffffffffffffffffffffffff16145b5b90509392505050565b5f805f90507a184f03e93ff9f4daa797ed6e38ed64bf6a1f01000000000000000083106127f9577a184f03e93ff9f4daa797ed6e38ed64bf6a1f01000000000000000083816127ef576127ee6134ee565b5b0492506040810190505b6d04ee2d6d415b85acef81000000008310612836576d04ee2d6d415b85acef8100000000838161282c5761282b6134ee565b5b0492506020810190505b662386f26fc10000831061286557662386f26fc10000838161285b5761285a6134ee565b5b0492506010810190505b6305f5e100831061288e576305f5e1008381612884576128836134ee565b5b0492506008810190505b61271083106128b35761271083816128a9576128a86134ee565b5b0492506004810190505b606483106128d657606483816128cc576128cb6134ee565b5b0492506002810190505b600a83106128e5576001810190505b80915050919050565b5f604051905090565b5f80fd5b5f80fd5b5f819050919050565b612911816128ff565b811461291b575f80fd5b50565b5f8135905061292c81612908565b92915050565b5f60208284031215612947576129466128f7565b5b5f6129548482850161291e565b91505092915050565b5f73ffffffffffffffffffffffffffffffffffffffff82169050919050565b5f6129868261295d565b9050919050565b6129968161297c565b82525050565b6129a5816128ff565b82525050565b5f8115159050919050565b6129bf816129ab565b82525050565b5f60c0820190506129d85f83018961298d565b6129e5602083018861298d565b6129f2604083018761299c565b6129ff60608301866129b6565b612a0c60808301856129b6565b612a1960a08301846129b6565b979650505050505050565b5f7fffffffff0000000000000000000000000000000000000000000000000000000082169050919050565b612a5881612a24565b8114612a62575f80fd5b50565b5f81359050612a7381612a4f565b92915050565b5f60208284031215612a8e57612a8d6128f7565b5b5f612a9b84828501612a65565b91505092915050565b5f602082019050612ab75f8301846129b6565b92915050565b5f81519050919050565b5f82825260208201905092915050565b5f5b83811015612af4578082015181840152602081019050612ad9565b5f8484015250505050565b5f601f19601f8301169050919050565b5f612b1982612abd565b612b238185612ac7565b9350612b33818560208601612ad7565b612b3c81612aff565b840191505092915050565b5f6020820190508181035f830152612b5f8184612b0f565b905092915050565b5f602082019050612b7a5f83018461298d565b92915050565b612b898161297c565b8114612b93575f80fd5b50565b5f81359050612ba481612b80565b92915050565b5f8060408385031215612bc057612bbf6128f7565b5b5f612bcd85828601612b96565b9250506020612bde8582860161291e565b9150509250929050565b5f805f60608486031215612bff57612bfe6128f7565b5b5f612c0c86828701612b96565b9350506020612c1d86828701612b96565b9250506040612c2e8682870161291e565b9150509250925092565b5f80fd5b5f80fd5b7f4e487b71000000000000000000000000000000000000000000000000000000005f52604160045260245ffd5b612c7682612aff565b810181811067ffffffffffffffff82111715612c9557612c94612c40565b5b80604052505050565b5f612ca76128ee565b9050612cb38282612c6d565b919050565b5f67ffffffffffffffff821115612cd257612cd1612c40565b5b612cdb82612aff565b9050602081019050919050565b828183375f83830152505050565b5f612d08612d0384612cb8565b612c9e565b905082815260208101848484011115612d2457612d23612c3c565b5b612d2f848285612ce8565b509392505050565b5f82601f830112612d4b57612d4a612c38565b5b8135612d5b848260208601612cf6565b91505092915050565b5f60208284031215612d7957612d786128f7565b5b5f82013567ffffffffffffffff811115612d9657612d956128fb565b5b612da284828501612d37565b91505092915050565b5f602082019050612dbe5f83018461299c565b92915050565b5f60ff82169050919050565b612dd981612dc4565b8114612de3575f80fd5b50565b5f81359050612df481612dd0565b92915050565b5f8060408385031215612e1057612e0f6128f7565b5b5f612e1d8582860161291e565b9250506020612e2e85828601612de6565b9150509250929050565b5f60208284031215612e4d57612e4c6128f7565b5b5f612e5a84828501612b96565b91505092915050565b5f604082019050612e765f83018561299c565b612e83602083018461299c565b9392505050565b612e93816129ab565b8114612e9d575f80fd5b50565b5f81359050612eae81612e8a565b92915050565b5f8060408385031215612eca57612ec96128f7565b5b5f612ed785828601612b96565b9250506020612ee885828601612ea0565b9150509250929050565b5f67ffffffffffffffff821115612f0c57612f0b612c40565b5b612f1582612aff565b9050602081019050919050565b5f612f34612f2f84612ef2565b612c9e565b905082815260208101848484011115612f5057612f4f612c3c565b5b612f5b848285612ce8565b509392505050565b5f82601f830112612f7757612f76612c38565b5b8135612f87848260208601612f22565b91505092915050565b5f805f8060808587031215612fa857612fa76128f7565b5b5f612fb587828801612b96565b9450506020612fc687828801612b96565b9350506040612fd78782880161291e565b925050606085013567ffffffffffffffff811115612ff857612ff76128fb565b5b61300487828801612f63565b91505092959194509250565b5f8060408385031215613026576130256128f7565b5b5f61303385828601612b96565b925050602061304485828601612b96565b9150509250929050565b7f4e487b71000000000000000000000000000000000000000000000000000000005f52602260045260245ffd5b5f600282049050600182168061309257607f821691505b6020821081036130a5576130a461304e565b5b50919050565b5f6060820190506130be5f83018661298d565b6130cb602083018561299c565b6130d8604083018461298d565b949350505050565b7f4e487b71000000000000000000000000000000000000000000000000000000005f52601160045260245ffd5b5f613117826128ff565b91507fffffffffffffffffffffffffffffffffffffffffffffffffffffffffffffffff8203613149576131486130e0565b5b600182019050919050565b7f4f6e6c79207468652073656c6c65722063616e207261746520746865206275795f8201527f6572000000000000000000000000000000000000000000000000000000000000602082015250565b5f6131ae602283612ac7565b91506131b982613154565b604082019050919050565b5f6020820190508181035f8301526131db816131a2565b9050919050565b7f43616e6e6f74207261746520756e74696c2064656c697665727920697320636f5f8201527f6e6669726d656400000000000000000000000000000000000000000000000000602082015250565b5f61323c602783612ac7565b9150613247826131e2565b604082019050919050565b5f6020820190508181035f83015261326981613230565b9050919050565b7f596f75206861766520616c7265616479207261746564207468652062757965725f8201527f20666f722074686973206f726465720000000000000000000000000000000000602082015250565b5f6132ca602f83612ac7565b91506132d582613270565b604082019050919050565b5f6020820190508181035f8301526132f7816132be565b9050919050565b7f526174696e67206d75737420626520312d3500000000000000000000000000005f82015250565b5f613332601283612ac7565b915061333d826132fe565b602082019050919050565b5f6020820190508181035f83015261335f81613326565b9050919050565b5f613370826128ff565b915061337b836128ff565b9250828201905080821115613393576133926130e0565b5b92915050565b6133a281612dc4565b82525050565b5f6020820190506133bb5f830184613399565b92915050565b7f4f6e6c792062757965722063616e20636f6e6669726d2064656c6976657279005f82015250565b5f6133f5601f83612ac7565b9150613400826133c1565b602082019050919050565b5f6020820190508181035f830152613422816133e9565b9050919050565b7f457363726f77206e6f742066756e6465640000000000000000000000000000005f82015250565b5f61345d601183612ac7565b915061346882613429565b602082019050919050565b5f6020820190508181035f83015261348a81613451565b9050919050565b5f81905092915050565b5f6134a582612abd565b6134af8185613491565b93506134bf818560208601612ad7565b80840191505092915050565b5f6134d6828561349b565b91506134e2828461349b565b91508190509392505050565b7f4e487b71000000000000000000000000000000000000000000000000000000005f52601260045260245ffd5b5f613525826128ff565b9150613530836128ff565b9250826135405761353f6134ee565b5b828204905092915050565b7f596f752063616e6e6f742062757920796f7572206f776e2070726f64756365005f82015250565b5f61357f601f83612ac7565b915061358a8261354b565b602082019050919050565b5f6020820190508181035f8301526135ac81613573565b9050919050565b7f457363726f7720616c72656164792066756e64656400000000000000000000005f82015250565b5f6135e7601583612ac7565b91506135f2826135b3565b602082019050919050565b5f6020820190508181035f830152613614816135db565b9050919050565b5f819050815f5260205f209050919050565b5f6020601f8301049050919050565b5f82821b905092915050565b5f600883026136777fffffffffffffffffffffffffffffffffffffffffffffffffffffffffffffffff8261363c565b613681868361363c565b95508019841693508086168417925050509392505050565b5f819050919050565b5f6136bc6136b76136b2846128ff565b613699565b6128ff565b9050919050565b5f819050919050565b6136d5836136a2565b6136e96136e1826136c3565b848454613648565b825550505050565b5f90565b6136fd6136f1565b6137088184846136cc565b505050565b5b8181101561372b576137205f826136f5565b60018101905061370e565b5050565b601f821115613770576137418161361b565b61374a8461362d565b81016020851015613759578190505b61376d6137658561362d565b83018261370d565b50505b505050565b5f82821c905092915050565b5f6137905f1984600802613775565b1980831691505092915050565b5f6137a88383613781565b9150826002028217905092915050565b6137c182612abd565b67ffffffffffffffff8111156137da576137d9612c40565b5b6137e4825461307b565b6137ef82828561372f565b5f60209050601f831160018114613820575f841561380e578287015190505b613818858261379d565b86555061387f565b601f19841661382e8661361b565b5f5b8281101561385557848901518255600182019150602085019450602081019050613830565b86831015613872578489015161386e601f891682613781565b8355505b6001600288020188555050505b505050505050565b5f81519050919050565b5f82825260208201905092915050565b5f6138ab82613887565b6138b58185613891565b93506138c5818560208601612ad7565b6138ce81612aff565b840191505092915050565b5f6080820190506138ec5f83018761298d565b6138f9602083018661298d565b613906604083018561299c565b818103606083015261391881846138a1565b905095945050505050565b5f8151905061393181612a4f565b92915050565b5f6020828403121561394c5761394b6128f7565b5b5f61395984828501613923565b91505092915050565b5f6040820190506139755f83018561298d565b613982602083018461299c565b939250505056fea2646970667358221220e9db705d2990777ae383740b5cee7875aa8de16d48186e33e79a4d1030c06c3864736f6c63430008180033",
  "linkReferences": {},
  "deployedLinkReferences": {},
  "immutableReferences": {},
  "inputSourceName": "project/contracts/AgroTraceability.sol",
  "buildInfoId": "solc-0_8_24-54d9d3a1a9de7540390233fec1a02f5d5b12014f"
}